:0400000069EF00F0B4
:100008004A82FACF07F0FBCF08F0E9CF09F0EACF30
:100018000AF0E1CF0BF0E2CF0CF0D9CF0DF0DACF38
:100028000EF0F3CF0FF0F4CF10F0F6CF11F0F7CFBA
:1000380012F0F8CF13F0F5CF14F0F2B8F2A203D013
:100048000FEC06F024D0F0B6F0A003D0F6EC04F0E4
:100058001ED0F2BCA0A605D0A1A603D020EC06F0C5
:1000680016D0F2BC9DA605D09EA603D012EC02F0D5
:100078000ED0F2BC9DA005D09EA003D0D2EC04F017
:1000880006D0F2BCA3A403D0A4B49FEC04F014C01F
:10009800F5FF13C0F8FF12C0F7FF11C0F6FF10C03C
:1000A800F4FF0FC0F3FF0EC0DAFF0DC0D9FF0CC07C
:1000B800E2FF0BC0E1FF0AC0EAFF09C0E9FF08C080
:1000C800FBFF07C0FAFF4A92110064EF05F0000E2B
:1000D8000001616F000E0001626F000E0001636F86
:1000E800000E0001646F000E0001606F0F0120B761
:1000F80085D020EE01F02750D9262850DA22DECF0D
:1001080015F0DECF16F0DECF17F0DECF18F027C0DF
:10011800D9FF28C0DAFFDF50196E610E1A6E000E83
:100128001B6E620E1C6E000E1D6E630E1E6E000EA0
:100138001F6E640E206E000E216E21EC03F061C06C
:1001480023FF62C024FF63C021FF64C022FF20EEAA
:1001580005F02750D9262850DA22DF500F01256FE5
:1001680020EE06F02750D9262850DA22DF500F015A
:10017800266F20EE07F02750D9262850DA22DF50C4
:100188000F01276F20EE08F02750D9262850DA22D1
:10019800DF500F01286F20EE09F02750D92628508C
:1001A800DA22DF500F01296F20EE0AF02750D926F6
:1001B8002850DA22DF500F012A6F20EE0BF027506B
:1001C800D9262850DA22DF500F012B6F20EE0CF0D1
:1001D8002750D9262850DA22DF500F012C6F20EE45
:1001E8000DF02750D9262850DA22DF500F012D6F45
:1001F8000F012087010E0001606F12000F0110B778
:1002080085D020EE01F02750D9262850DA22DECFFB
:1002180015F0DECF16F0DECF17F0DECF18F027C0CE
:10022800D9FF28C0DAFFDF50196E610E1A6E000E72
:100238001B6E620E1C6E000E1D6E630E1E6E000E8F
:100248001F6E640E206E000E216E21EC03F061C05B
:1002580013FF62C014FF63C011FF64C012FF20EED9
:1002680005F02750D9262850DA22DF500F01156FE4
:1002780020EE06F02750D9262850DA22DF500F0149
:10028800166F20EE07F02750D9262850DA22DF50C3
:100298000F01176F20EE08F02750D9262850DA22D0
:1002A800DF500F01186F20EE09F02750D92628508B
:1002B800DA22DF500F01196F20EE0AF02750D926F5
:1002C8002850DA22DF500F011A6F20EE0BF027506A
:1002D800D9262850DA22DF500F011B6F20EE0CF0D0
:1002E8002750D9262850DA22DF500F011C6F20EE44
:1002F8000DF02750D9262850DA22DF500F011D6F44
:100308000F011087010E0001606F12000F0100B786
:10031800120020EE01F02750D9262850DA22DECF2D
:1003280015F0DECF16F0DECF17F0DECF18F027C0BD
:10033800D9FF28C0DAFFDF50196E610E1A6E000E61
:100348001B6E620E1C6E000E1D6E630E1E6E000E7E
:100358001F6E640E206E000E216E21EC03F061C04A
:1003680003FF62C004FF63C001FF64C002FF20EE08
:1003780005F02750D9262850DA22DF500F01056FE3
:1003880020EE06F02750D9262850DA22DF500F0138
:10039800066F20EE07F02750D9262850DA22DF50C2
:1003A8000F01076F20EE08F02750D9262850DA22CF
:1003B800DF500F01086F20EE09F02750D92628508A
:1003C800DA22DF500F01096F20EE0AF02750D926F4
:1003D8002850DA22DF500F010A6F20EE0BF0275069
:1003E800D9262850DA22DF500F010B6F20EE0CF0CF
:1003F8002750D9262850DA22DF500F010C6F20EE43
:100408000DF02750D9262850DA22DF500F010D6F42
:100418000F010087010E0001606F12009E96C6AEA4
:10042800E9D0C69E000E436E000E346E000E356E87
:1004380012002DB212002BC034F02CC035F02BC0A6
:10044800D9FF2CC0DAFFDF50426E20EE01F02B50AE
:10045800D9262C50DA22DECF36F0DDCF37F0060E63
:100468002B26000E2C22890E2B1808E1000E2C18C2
:10047800D8A404D0830E2B6E000E2C6E2D9029501C
:100488002B1804E12A502C18D8B42D82C580020EEE
:10049800436E1200C582020E436E1200C5AC05D031
:1004A8002F2A040E13EC06F01200D8904730026E83
:1004B8004630016E0150C96E46A003D00B0E436E44
:1004C8001200030E436E1200C5AC05D02F2A040E8D
:1004D80013EC06F01200C58246C001F047C002F0D6
:1004E80002C001F0026A060E0116000E0216F00E96
:1004F8000110466E0250476E4680010E406E020E95
:10050800436E12004004D8B41AD036C0D9FF37C0A1
:10051800DAFFDECF46F0DDCF47F020EE03F03650AD
:10052800D9263750DA22DECF32F0DDCF33F020EE95
:1005380002F03650D9263750DA22DF50416E46C0D5
:10054800C9FF46A003D0050E436E1200030E436E8A
:100558001200C5AC06D02F2AC59C050E13EC06F078
:10056800120041064128D8A40ED0060E3626000EE9
:100578003722422E04D0000E13EC06F01200C5827A
:10058800020E436E120032C0D9FF33C0DAFFDF50CB
:10059800C96E324A332A1200C5AC06D02F2A040E7F
:1005A80013EC06F0C59C1200C586080E436E1200B7
:1005B800080E436EC586120032C0D9FF33C0DAFF79
:1005C800C9CFDFFF324A332A010E415ED8B404D0C6
:1005D800C59A060E436E03D0C58AE0EC05F0C588BF
:1005E8001200000E13EC06F012002F2A060E13EC70
:1005F80006F012004350000AD8B41BD7010AD8B439
:1006080049D7030AD8B47ED7010AD8B4A2D7070AB3
:10061800D8B4E7D7010AD8B4BFD7030AD8B4C8D723
:10062800010AD8B4DED70F0AD8B4C6D7020AD8B49C
:1006380035D7010AD8B448D7D8D7000E266E020E8F
:100648001918D8A481D01CC0D9FF1DC0DAFF15C065
:10065800DFFF15C022F016C023F017C024F018C021
:1006680025F023C022F024C023F025C024F0256AF9
:1006780022C015F023C016F024C017F025C018F0CA
:100688001AC0D9FF1BC0DAFF15C0DFFF15C022F062
:1006980016C023F017C024F018C025F023C022F09C
:1006A80024C023F025C024F0256A22C015F023C0F9
:1006B80016F024C017F025C018F01550030B266E4D
:1006C80015C022F016C023F017C024F018C025F07A
:1006D800030ED8902236233624362536E82EF9D74D
:1006E80022C015F023C016F024C017F025C018F05A
:1006F8001550E00B2624266E2650080F266E26502D
:10070800EB0B20C0D9FF21C0DAFFDF6E15C022F045
:1007180016C023F017C024F018C025F023C022F01B
:1007280024C023F025C024F0256A22C015F023C078
:1007380016F024C017F025C018F01EC0D9FF1FC03E
:10074800DAFF15C0DFFF12001AC0D9FF1BC0DAFF9D
:10075800000EDF6E1CC0D9FF1DC0DAFF000EDF6E71
:1007680015C022F016C023F017C024F018C025F0D9
:10077800050ED8902236233624362536E82EF9D7AA
:1007880022C015F023C016F024C017F025C018F0B9
:1007980020C0D9FF21C0DAFF15C0DFFF15C022F045
:1007A80016C023F017C024F018C025F023C022F08B
:1007B80024C023F025C024F0256A22C015F023C0E8
:1007C80016F024C017F025C018F01EC0D9FF1FC0AE
:1007D800DAFF15C0DFFF1200800E6F6E6E50E00B5F
:1007E800800AD8A4FBD7000E726E000E0E01FA6FB5
:1007F800000E0E01FB6F000E0E01F86F000E0E01C9
:10080800F96F0E01FE690E01FF690E01FC690E0108
:10081800FD69000E0E01E26F000E0E01E36F880EF7
:100828000E01E06F800E0E01E16F000E0E01E66F03
:10083800000E0E01E76FCC0E0E01E46FC00E0E0124
:10084800E56F000E0E01EA6F000E0E01EB6F000E51
:100858000E01E86F000E0E01E96F000E0E01EE6F3B
:10086800000E0E01EF6F000E0E01EC6F000E0E0170
:10087800ED6F000E0E01F26F000E0E01F36F000E09
:100888000E01F06F000E0E01F16F000E0E01F66FF3
:10089800000E0E01F76F000E0E01F46F000E0E0130
:1008A800F56F030E0E01436F980E0E01446F010E93
:1008B8000E01456F000E6F6E6ECF15F0E00E151627
:1008C800D8B41200F9D777EC05F07080708A709E62
:1008D800708C000E0001656F000E0001666F80824B
:1008E8001BEC06F00001656F000165510001D8B4EA
:1008F80004D000016669819804D0000E0001666F7B
:100908008188010E0001676F740E0001686F010E87
:10091800696F000E6A6F000E6B6F020E00016C6F3C
:1009280066C06DF066C06EF0670E276E000E286E0A
:100938006BEC00F0D5D7A49451CF03F052CF04F05C
:100948000350385C04503958D8A015D003C001F0C2
:1009580004C002F0011E021E014A022A3850012674
:1009680039500222011E021E014A022AFF0E0124EA
:100978003A6EFF0E0CD038C001F039C002F0011EEB
:10098800021E014A022A035001243A6E0450022032
:100998003B6E03C038F004C039F012009E904950F5
:1009A800CF6E48C0CEFF482803E14928D8B403D009
:1009B800484A492A04D0000E496E000E486E0001CC
:1009C8008D5100018E11D8B4120001D81200050013
:1009D8000001FA6E8D51FD6E8E51FE6EF850FF6E5D
:1009E800FA5012003F50D8A409D0C3EC05F001C05A
:1009F80030F002C031F0010E3F6E0CD0000E316EA7
:100A0800000E306E000E3F6E81A202D0010E01D0A2
:100A1800000E3D6E80A202D0809201D08082F090BC
:100A28009DEC05F01200000ECD6E000EAA6ECF6888
:100A3800F00ECE6ECE50CFCF17F0186A17C018F050
:100A4800176A1710486E1850496E9E909D803A0E8E
:100A5800156E0C0E166E00EC06F017EC06F0120080
:100A6800000E8D6E000E8C6E040E896E000E8A6E5E
:100A7800000E8B6E070E966EED0E926EEB0E936E59
:100A880094689568FB0E0F015D6F780E0F015C6F1F
:100A98000F015B691200830E2B6E000E2C6E830E05
:100AA800296E000E2A6E2D822D90000E2F6E000EDC
:100AB800C76E280EC66E030EC86E9E969D861200DF
:100AC80000EE75F0140EEE6AE806FDE100EE29F07E
:100AD8001F0EEE6AE806FDE14A904A92000EF86E93
:100AE800000167EF04F019EC06F034EC05F0F7ECC0
:100AF80005F04FEC05F0D3EC05F0ECEC05F017EC45
:100B080005F08AEC05F0F0EC03F01200F090F18AA1
:100B18003C0E156E0C0E166E05EC06F0F086F29281
:100B2800F18C3E0E156E0C0E166E0AEC06F0F2886D
:100B3800120000018B5100018C11D8B4120001D8A9
:100B4800120005000001FA6E8B51FD6E8C51FE6E8D
:100B5800F850FF6EFA5012000001895100018A1105
:100B6800D8B4120001D8120005000001FA6E8951AC
:100B7800FD6E8A51FE6EF850FF6EFA501200CE508C
:100B8800CFCF03F0046A03C004F0036A0310056EB4
:100B98000450066E05C001F006C002F01200070EF0
:100BA8000F01506F000E0F01516F000E0F01526FB1
:100BB8009992A494A3841200060E3626000E3722BA
:100BC800422E03D0040E436E1200010E436E120033
:100BD800010EC26E980EC16E8E0EC06E000EC46EEF
:100BE800000EC36E1200600ED36E000ED26E400E61
:100BF8009B6E000E9A6E120015C08DF016C08EF016
:100C0800120015C08BF016C08CF0120015C089F0C8
:100C180016C08AF01200F292B0EC05F01200C584FA
:100C2800000E436E1200CD801200D09E12003D507F
:0A0C38001200120012001200120058
:020000040020DA
:08000000FFFFFFFFFFFFFFFF00
:020000040030CA
:0E0000001D037F7CFF8991FF0FC00FE00F40B2
:00000001FF
